S0130000456E7472656761626C65332E73726563E5
S11300000C943A000C9457000C9457000C9457002D
S11300100C9457000C9457000C9457000C94570000
S11300200C9457000C9457000C9457000C949D03A7
S11300300C9457000C9457000C9457000C945700E0
S11300400C9457000C9457000C9439040C94050438
S11300500C9457000C9457000C9457000C945700C0
S11300600C9457000C9457006364696E6F70737539
S113007078585B0011241FBECFEFD8E0DEBFCDBFA0
S113008012E0A0E0B1E0E0E4F5E102C005900D92D9
S1130090A835B107D9F723E0A8E5B2E001C01D9265
S11300A0AD32B207E1F70E945C010C949E0A0C94F5
S11300B0000081110EC080E090E01DC095E09A958B
S11300C0F1F700002F5F3F4F253F91E0390718F00B
S11300D0089520E030E096B1892F817090FFEECF33
S11300E081E0089525E02A95F1F700000196853F07
S11300F021E0920720F43099F5CF81E0089580E063
S11301000895AF92BF92CF92EF92FF921F93CF9335
S1130110DF9300D000D01F92CDB7DEB75C017B0126
S1130120FE01319685E0DF011D928A95E9F787B1DA
S1130130816087B988B18E7F88B9BFEFE0EEF0E0C7
S1130140B150E040F040E1F700C0000087B18E7F7D
S113015087B988B18E7F88B980E00E9459008823CE
S113016009F450C081E00E945900882309F44AC070
S113017080E00E945900882309F444C0C12C28C09F
S113018081E00E9459008823E9F120EA2A95F1F7D9
S11301902C2D30E0E1E0F0E0EC0FFD1FE20FF31F47
S11301A08081880F8083309B08C0E1E0F0E0EC0F91
S11301B0FD1FE20FF31F8160808380E00E945900DD
S11301C0882301F11F5F01C010E01830C8F2C39406
S11301D084E08C15C8F759818A8190E0850F911DC0
S11301E04B81840F911D2C81820F911D2D8130E054
S11301F08217930731F4D7015C93F501408381E0C2
S113020001C080E00F900F900F900F900F90DF913E
S1130210CF911F91FF90EF90CF90BF90AF90089532
S11302201092B90088E48093B80084E08093BC0005
S1130230089594EA9093BC009091BC009923E4F74C
S11302408093BB0084E88093BC008091BC00882329
S1130250E4F78091B900887F883139F08091B90042
S1130260887F803421F481E0089581E0089580E05E
S1130270089584E98093BC0008958093BB0084E8CA
S11302808093BC008091BC008823E4F781E008954A
S113029084EC8093BC008091BC008823E4F78091B7
S11302A0BB00089584E88093BC008091BC0088233F
S11302B0E4F78091BB0008950E94C2030E94840168
S11302C00E94880378940E944903FDCF982F929549
S11302D09F70990F292F220F220F920F8F70890F71
S11302E008959DEC899F912D112496959695969548
S11302F020E1929FA0011124990F292F220F220F90
S1130300920F891B842B08950E9410010895CF93A6
S1130310DF93EC0180ED0E94190180E00E943D0111
S113032081ED0E9419010E9448010E9466018A839E
S11303300E9448010E94660189830E9452010E9422
S1130340660188830E943901DF91CF9108951F933C
S1130350CF93DF93C62FD72F182F80ED0E9419015A
S113036080E00E943D01812F0E9471010E943D01A5
S11303708D2F0E9471010E943D018C2F0E947101FA
S11303800E943D010E943901DF91CF911F91089590
S11303900F931F93CF93DF93CDB7DEB7CD57D1091A
S11303A00FB6F894DEBF0FBECDBFCE0101960E94FA
S11303B08701BE016B5F7F4FCE0104960E948100CE
S11303C0898199EF980F9C3008F055C09C812CEEE0
S11303D0290F2B3010F52D812233F8F02734E8F45F
S11303E04B813A811F922F931F929F931F924F9399
S11303F01F923F931F928F9382E091E09F938F937C
S1130400CE0106969F938F930E9480040FB6F894B2
S1130410DEBF0FBECDBF10E082C08D811F928F93CF
S113042088E391E09F938F93CE018A5A9F4F9F93C5
S11304308F930E9480042B819A8189813D811F9230
S11304403F933C811F923F931F922F931F929F9340
S11304501F928F9384E691E09F938F93CE0106962B
S11304609F938F930E9480040FB6F894DEBF0FBE53
S1130470CDBF11E054C09C8121EF290F283010F525
S11304802D812C33F8F02135E8F44B813A811F9209
S11304902F931F929F931F924F931F923F931F92EC
S11304A08F9382E091E09F938F93CE0106969F9362
S11304B08F930E9480040FB6F894DEBF0FBECDBFA9
S11304C010E02DC08D811F928F938AE991E09F9354
S11304D08F93CE018A5A9F4F9F938F930E948004DB
S11304E02B819A8189813D811F923F933C811F9288
S11304F03F931F922F931F929F931F928F9384E693
S113050091E09F938F93CE0106969F938F930E94C1
S113051080040FB6F894DEBF0FBECDBF11E0CE014C
S113052006960E94F003112359F1809158028F5FBF
S113053080935802823030F1109258024B813A81F4
S11305402981CE018A5A9F4F9F938F931F924F9375
S11305501F923F931F922F9388EC91E09F938F9368
S11305608E010A5F1F4F1F930F930E948004C801DE
S11305700E94F0030FB6F894DEBF0FBECDBF02C0D9
S113058010925802C358DF4F0FB6F894DEBF0FBE67
S1130590CDBFDF91CF911F910F910895CF93DF933A
S11305A000D01F92CDB7DEB70E94FD03882309F463
S11305B06AC00E940004BC0189E592E00E946B04B9
S11305C049E050E067EE71E089E592E00E94720430
S11305D0892B19F5CE0103969F938F9301979F93CF
S11305E08F9301979F938F9381EF91E09F938F93C4
S11305F082E692E09F938F930E94A20469817A819C
S11306008B810E94A70180E092E00E94F0030FB664
S1130610F894DEBF0FBECDBF36C047E050E063E1C3
S113062072E089E592E00E947204892B41F5CE01C3
S113063001969F938F938BEF91E09F938F9380E626
S113064092E09F938F930E94A20489819EEF980F5A
S11306500F900F900F900F900F900F909B3350F4CA
S113066090E090930101809300018BE192E00E945D
S1130670F00309C081E392E00E94F00304C084E423
S113068092E00E94F0030F900F900F90DF91CF91B2
S113069008950E94FD03882319F00E94CE02089554
S11306A040917D0250917E0260917F0270918002A0
S11306B08091790290917A02A0917B02B0917C02A0
S11306C0481B590B6A0B7B0B2091000130910101EF
S11306D0E4E6E29FC001E39F900D1124A0E0B0E0A6
S11306E0481759076A077B0790F080917D02909123
S11306F07E02A0917F02B091800280937902909350
S11307007A02A0937B02B0937C020E94C8010895F0
S1130710E1E8F0E080818860808380818360808369
S113072083EC99E09093890080938800EFE6F0E0F1
S1130730808182608083789408951F920F920FB60F
S11307400F9211248F939F93AF93BF9380917D0257
S113075090917E02A0917F02B09180020196A11D2A
S1130760B11D80937D0290937E02A0937F02B0938B
S11307708002BF91AF919F918F910F900FBE0F9008
S11307801F90189588E98093C10086E08093C20089
S113079087E690E09093C5008093C400089520916B
S11307A0820230E02F5F3F4F2F773078332334F4C9
S11307B02150310920683F6F2F5F3F4F9091810294
S11307C02917E1F3E0918202F0E0E355FD4F8083C5
S11307D020938202E1ECF0E08081806280830895BE
S11307E0CF93DF93EC0103C021960E94CF0388814D
S11307F08111FACFDF91CF910895809183020895FA
S11308001092830285E892E008951F920F920FB62A
S11308100F9211248F939F93EF93FF9390918102F2
S1130820809182029817B9F0E0918102F0E0E355DB
S1130830FD4F80818093C6008091810290E00196F3
S11308408F779078992324F4019780689F6F01969D
S11308508093810205C0E1ECF0E080818F7D80838C
S1130860FF91EF919F918F910F900FBE0F901F906A
S113087018951F920F920FB60F9211248F939F9386
S1130880EF93FF938091C6008D3011F08A3061F4AC
S1130890E0918402F0E0EB57FD4F108281E08093F9
S11308A08302109284020EC090918402973250F415
S11308B0E091840291E09E0F90938402F0E0EB5764
S11308C0FD4F8083FF91EF919F918F910F900FBE09
S11308D00F901F901895FB01DC0101900D920020F0
S11308E0E1F70895FB01DC014150504030F08D9157
S11308F00190801919F40020B9F7881B990B089509
S1130900AEE0B0E0E6E8F4E00C94750A0D891E89C7
S113091086E08C831A8309838FEF9FE79E838D8300
S1130920AE01475E5F4F6F89788DCE0101960E94BC
S1130930BB04EF81F885E00FF11F10822E96E4E0EE
S11309400C94910AAEE0B0E0E8EAF4E00C94770A83
S113095085E08C838B899C899A838983AE01495E67
S11309605F4F6D897E89CE0101960E9438082E96CC
S1130970E2E00C94930AABE0B0E0E1ECF4E00C9418
S1130980670A6C017B018A01FC011782168283814C
S113099081FFCCC1CE0101963C01F6019381F701A0
S11309A093FD859193FF81917F01882309F4BAC156
S11309B0853239F493FD859193FF81917F018532CE
S11309C029F4B60190E00E94B109E7CF912C212CC3
S11309D0312CFFE1F315D8F08B3279F038F4803202
S11309E079F08332A1F4232D20611DC08D3261F092
S11309F0803369F4232D216016C0832D8260382E44
S1130A00E32DE4603E2E2AC0F32DF8601DC037FCB0
S1130A102DC020ED280F2A3040F08E32B9F436FC78
S1130A2081C1232D2064322E19C036FE06C08AE00F
S1130A30989E200D1124922E11C0EAE02E9E200DC6
S1130A401124222EF32DF0623F2E08C08C3621F49F
S1130A50832D8068382E02C0883641F4F70193FD57
S1130A60859193FF81917F018111B3CF982F9F7D51
S1130A709554933028F40C5F1F4F9FE399830DC066
S1130A80833631F0833771F0833509F059C021C0C2
S1130A90F801808189830E5F1F4F88248394912CF1
S1130AA0530113C02801F2E04F0E511CF801A0803D
S1130AB0B18036FE03C0692D70E002C06FEF7FEF96
S1130AC0C5010E9468094C018201F32DFF773F2E76
S1130AD016C0280122E0420E511CF801A080B1800A
S1130AE036FE03C0692D70E002C06FEF7FEFC501D1
S1130AF00E945D094C01F32DF0683F2E820133FC06
S1130B001BC0822D90E088169906B0F4B60180E2ED
S1130B1090E00E94B1092A94F4CFF50137FC859145
S1130B2037FE81915F01B60190E00E94B109211066
S1130B302A9421E0821A91088114910471F7E8C083
S1130B40843611F0893641F5F80137FE07C060811B
S1130B507181828193810C5F1F4F08C06081718114
S1130B60072E000C880B990B0E5F1F4FF32DFF7699
S1130B703F2E97FF09C090958095709561957F4FA2
S1130B808F4F9F4FF0683F2E2AE030E0A3010E9470
S1130B90060A882E861845C0853731F4232D2F7E0A
S1130BA0B22E2AE030E025C0932D997FB92E8F36DE
S1130BB0C1F018F4883579F0B5C0803719F088375A
S1130BC021F0B0C0E92FE061BE2EB4FE0DC0FB2DB4
S1130BD0F460BF2E09C034FE0AC0292F2660B22E4D
S1130BE006C028E030E005C020E130E002C020E18A
S1130BF032E0F801B7FE07C0608171818281938180
S1130C000C5F1F4F06C06081718180E090E00E5F31
S1130C101F4FA3010E94060A882E8618FB2DFF771A
S1130C203F2E36FE0DC0232D2E7FA22E891458F49C
S1130C3034FE0BC032FC09C0832D8E7EA82E05C065
S1130C40B82CA32C03C0B82C01C0B92CA4FE0FC02F
S1130C50FE01E80DF11D8081803321F49A2D997EE7
S1130C60A92E09C0A2FE06C0B394B39404C08A2D71
S1130C70867809F0B394A3FC11C0A0FE06C0B21498
S1130C8088F4280C922C9B180EC0B21460F4B601A0
S1130C9080E290E00E94B109B394F7CFB21418F443
S1130CA02B1802C0982C212CA4FE10C0B60180E39E
S1130CB090E00E94B109A2FE17C0A1FC03C088E71E
S1130CC090E002C088E590E0B6010CC08A2D8678D9
S1130CD059F0A1FE02C08BE201C080E2A7FC8DE2C4
S1130CE0B60190E00E94B109891438F4B60180E39A
S1130CF090E00E94B1099A94F7CF8A94F301E80D29
S1130D00F11D8081B60190E00E94B1098110F5CFF8
S1130D10222009F442CEB60180E290E00E94B1099B
S1130D202A94F6CFF6018681978102C08FEF9FEF58
S1130D302B96E2E10C94830A20FD09C0FC0123FDFB
S1130D4005C022FF02C073836283518340830895E8
S1130D5044FD17C046FD17C0AB01BC01DA01FB011D
S1130D60AA0FBB1FEE1FFF1F1094D1F74A0F5B1F82
S1130D706E1F7F1FCB01BA01660F771F881F991F53
S1130D8009C033E001C034E0660F771F881F991F44
S1130D903150D1F7620F711D811D911D08950F937C
S1130DA01F93CF93DF938C01C8010E947309EC0158
S1130DB097FD08C00E944909892BB1F7B801CE01FB
S1130DC00E94ED09CE01DF91CF911F910F910895FB
S1130DD08F929F92AF92BF92EF92FF920F931F93C5
S1130DE0CF93DF938C01D62F7A01B22E0E94730920
S1130DF09C0133272B32310531F02D32310561F45A
S1130E008B2D8068B82ED15011F480E068C0C801E1
S1130E100E94730997FDF9CFCB2DCD7F2B2D207325
S1130E2009F58033F9F4AA24AA94AD0E09F443C059
S1130E30C8010E94730997FD3EC09C012F7D332792
S1130E402835310549F4C264D250A9F1C8010E9481
S1130E50730997FF07C02FC0B6FE02C0C26001C06D
S1130E60C261DA2D812C912C540120ED280F2830F9
S1130E7080F0C4FF04C0B8010E94ED0919C02A30F3
S1130E8040F0C6FFF8CF2F7D3FEE320F363098F793
S1130E9027504C2FC501B4010E94A8064B015C01E8
S1130EA0C260D15059F0C8010E94730997FFDDCF89
S1130EB0C1FD04C0AACF812C912C5401C7FF08C0E6
S1130EC0B094A09490948094811C911CA11CB11C9A
S1130ED02C2FB501A401C7010E949C0681E0DF917B
S1130EE0CF911F910F91FF90EF90BF90AF909F9083
S1130EF08F900895A0E2B0E0E0E8F7E00C946A0A6D
S1130F005C01962E7A01F9018E010F5F1F4F680173
S1130F1080E2D8011D928A95E9F7D50113968C9049
S1130F2080E090E0612C712C30E061E070E083FCA3
S1130F30259183FE21918F01522E211103C080E05F
S1130F4090E092C02E3511F4009751F1432F50E0F8
S1130F50481759073CF42D3559F12D3219F47720EF
S1130F6009F103C0772009F46AC0452D46954695DA
S1130F704695D601A40FB11D452D47708B0102C0C3
S1130F80000F111F4A95E2F7A8015C91452B4C9381
S1130F90651459F0561410F45394E7CF5A94E5CFDE
S1130FA031E004C07724739401C0712C0196BFCF43
S1130FB0772019F08E8180628E83311103C08824DA
S1130FC0839417C0F6019E012F5D3F4F8081809569
S1130FD081932E173F07D1F7F2CFE114F10429F0E2
S1130FE0D7018C93F70131967F019A94812C992033
S1130FF0F9F0C5010E94730997FD18C0FC01FF2791
S113100023E0F595E7952A95E1F7EC0DFD1D208188
S113101030E0AC014770552702C0359527954A95B5
S1131020E2F720FDDACFB5010E94ED09811087CFE8
S1131030E114F10411F0D7011C92C80115C0422F2C
S1131040469546954695D601A40FB11D422F47708B
S11310508B0102C0000F111F4A95E2F7A8015C91B1
S1131060452B4C93622EA2CFA096EFE00C94860AF7
S1131070A0E0B0E0EEE3F8E00C946A0A6C01EB0146
S11310805A01FC0117821682512CF601E380FE01FD
S1131090E3FC8591E3FE8191182FEF01882309F485
S11310A0EEC090E00E944909892B21F0C6010E94FC
S11310B0CF06EBCF153241F4FE01E3FC1591E3FEBC
S11310C01191EF01153281F4C6010E94730997FD55
S11310D0D4C0412F50E09C01332724173507A9F2CF
S11310E0B6010E94ED09CBC01A3239F4E3FC159124
S11310F0E3FE1191EF0101E001C000E0F12C20EDCD
S1131100210F2A3080F402606F2D70E080E090E0BF
S113111040E20E94A806F62EFE01E3FC1591E3FED0
S11311201191EF01ECCF01FF03C0F11003C0A7C080
S1131130FF24FA94183619F01C3651F010C0FE0141
S1131140E3FC1591E3FE1191EF01183641F40860B8
S11311500460FE01E3FC1591E3FE1191EF011123FC
S113116009F48DC0612F70E088E690E00E94520976
S1131170892B09F484C000FD07C0F50180809180AB
S1131180C50102965C0102C0812C912C1E3651F4DB
S1131190F6014681578160E070E0202FC4010E946F
S11311A09C0673CF1336A9F401FD02C0FF24F39407
S11311B0C6010E94730997FD60C08114910429F04F
S11311C0F4018083C40101964C01FA94F110F0CF2C
S11311D050C01B3559F49E01A4016F2DC6010E9415
S11311E07A07EC01892B09F044C03EC0C6010E9475
S11311F0CF0697FD42C01F3661F128F4143639F149
S1131200193651F128C0133771F0153701F123C095
S11312108114910429F0F4016082C40101964C0107
S1131220FA94FF2071F0C6010E9473093C0197FDF6
S113123008C00E944909892B59F3B601C3010E94D1
S1131240ED0981149104A9F0F401108212C0006226
S113125003C0006101C00064202FA4016F2DC601EA
S11312600E94E806811105C0F6018381807329F488
S113127006C000FD0ACF539408CF552019F0852DE0
S113128090E002C08FEF9FEFCDB7DEB7EFE00C9494
S1131290860A91110C94640A803219F089508550A1
S11312A0C8F70895FC010590061621F00020D9F72F
S11312B0C00108953197CF010895FC010590615054
S11312C070400110D8F7809590958E0F9F1F089558
S11312D0FC016150704001900110D8F78095909501
S11312E08E0F9F1F0895CF93DF93EC012B8120FF76
S11312F033C026FF0AC02F7B2B838E819F810196EA
S11313009F838E838A8190E029C022FF0FC0E881E9
S1131310F9818081082E000C990B009719F4206242
S11313202B831AC03196F983E8830EC0EA85FB85C6
S1131330099597FF09C02B81019611F080E201C045
S113134080E1822B8B8308C02E813F812F5F3F4F2A
S11313503F832E83992702C08FEF9FEFDF91CF91B8
S113136008950F931F93CF93DF93FB01238121FDF6
S113137003C08FEF9FEF2CC022FF16C04681578118
S1131380248135814217530744F4A081B1819D0122
S11313902F5F3F4F318320838C93268137812F5FCA
S11313A03F4F3783268314C08B01EC01FB0100847B
S11313B0F185E02D0995892BE1F6D80116968D91DA
S11313C09C911797019617969C938E931697CE012E
S11313D0DF91CF911F910F910895FB01238120FF8D
S11313E012C026FD10C08F3F3FEF930761F0828348
S11313F02F7D20642383268137812150310937834F
S11314002683992708958FEF9FEF0895FA01AA275D
S1131410283051F1203181F1E8946F936E7F6E5F33
S11314207F4F8F4F9F4FAF4FB1E03ED0B4E03CD0E1
S1131430670F781F891F9A1FA11D680F791F8A1FC4
S1131440911DA11D6A0F711D811D911DA11D20D02B
S113145009F468943F912AE0269F11243019305DE5
S11314603193DEF6CF010895462F4770405D4193D6
S1131470B3E00FD0C9F7F6CF462F4F70405D4A3323
S113148018F0495D31FD4052419302D0A9F7EACFEB
S1131490B4E0A6959795879577956795BA95C9F71A
S11314A000976105710508959B01AC010A2E06940D
S11314B05795479537952795BA95C9F7620F731FC6
S11314C0841F951FA01D08959927882708952F929A
S11314D03F924F925F926F927F928F929F92AF92C0
S11314E0BF92CF92DF92EF92FF920F931F93CF930D
S11314F0DF93CDB7DEB7CA1BDB0B0FB6F894DEBFA4
S11315000FBECDBF09942A88398848885F846E84C9
S11315107D848C849B84AA84B984C884DF80EE8013
S1131520FD800C811B81AA81B981CE0FD11D0FB61C
S1131530F894DEBF0FBECDBFED010895F894FFCF40
S113154005005B253032643A253032643A25303266
S1131550645D20543A2530326443207C20483A2587
S11315603032642525207C2045737461646F3A4EC3
S11315704F524D414C0D0A0048756D6564616420FD
S113158066756572612064652072616E676F2064A0
S11315906975726E6F212056616C6F723A25303214
S11315A0642525005B253032643A253032643A25BF
S11315B03032645D20543A2530326443207C204824
S11315C03A253032642525207C2045737461646F8C
S11315D03A414C455254410D0A0048756D656461A9
S11315E0642066756572612064652072616E676F40
S11315F0206E6F637475726E6F212056616C6F720A
S11316003A253032642525005B414C455254415DF6
S1131610205B253032643A253032643A2530326416
S11316205D2025730D0A005345545F54494D453DD3
S113163000256868753A256868753A2568687500F4
S1131640486F72612061637475616C697A61646169
S11316500D0A005345545F544D3D00506572696F47
S1131660646F2061637475616C697A61646F0D0ADB
S113167000506572696F646F20696E76616C69648D
S11316806F0D0A00436F6D616E646F20696E766141
S10B16906C69646F0D0A00008F
S9030000FC
