S0130000456E7472656761626C65342E73726563E4
S11300000C943A000C9457000C9457000C9457002D
S11300100C9457000C9457000C9457000C946101F5
S11300200C9457000C9457000C9457000C945700F0
S11300300C9457000C9457000C94DB010C9457005B
S11300400C9457000C9457000C94C7020C948D0226
S11300500C9457000C9457000C9457000C945700C0
S11300600C9457000C9457006364696E6F70737539
S113007078585B0011241FBECFEFD8E0DEBFCDBFA0
S113008011E0A0E0B1E0E8EAFDE002C005900D92C5
S1130090AE32B107D9F721E0AEE2B1E001C01D9262
S11300A0AC38B207E1F70E9470010C94D2060C94AC
S11300B0000087B1877F87B9EEE7F0E08081886030
S11300C08083EAE7F0E0808180688083ACE7B0E079
S11300D08C9180648C938C9183608C9380818760F5
S11300E080830895EAE7F0E08081806480838091D2
S11300F07A0086FDFCCF8091780090917900089574
S11301001092870110923201109231011092300145
S11301100895883B2BE0920710F488EB9BE0885B02
S11301209B4090932F0180932E010895CF93DF93EA
S1130130C0913101D09132012196D0933201C09304
S1130140310180918701813019F130F0823071F1F1
S1130150833009F446C054C09E01AFEFB0E00E9462
S11301602F0328EE33E040E050E00E940D0320937B
S11301703001C83ED34008F443C081E08093870136
S11301808FEF80933001109232011092310138C008
S11301908FEF80933001C83ED34090F182E080938A
S11301A0870110923201109231012AC09E01AFEFF3
S11301B0B0E00E942F0328EE33E040E050E00E94BC
S11301C00D03209520933001C83ED340C8F083E04E
S11301D08093870110923001109232011092310104
S11301E00FC01092300180912E0190912F01C817F9
S11301F0D90730F010928701109232011092310128
S1130200809130010E941501DF91CF910895E3E3BD
S1130210F1E01082118212820895E3E3F1E0808319
S1130220618342830E94C90108950F931F93CF9362
S1130230DF93E3E3F1E09081482F50E0949F900135
S1130240959F300D1124A1E8B0E80E942F03EC0122
S1130250CC0FCD2FCC1FDD0BD1958181849F9001D4
S1130260859F300D11240E942F038C01000F012F54
S1130270001F110B11958281849F9001859F300D81
S113028011240E942F03880F892F881F990B9195A1
S1130290482F602F8C2F0E94C901DF91CF911F91AD
S11302A00F91089582E08093B00084E08093B100C0
S11302B089EF8093B300E0E7F0E08081826080837F
S11302C008951F920F920FB60F9211248F9381E01D
S11302D0809336018F910F900FBE0F901F90189549
S11302E00E9407010E944F020E94B8010E9440022E
S11302F00E9452010E9459000E94800078940E943A
S1130300850281110E943A02809136018823B9F353
S1130310109236010E949600809137019091380125
S1130320019690933801809337018436910538F310
S113033010923801109237010E9472009093890143
S1130340809388019C01A8EBBBE00E942F032FEF50
S113035033E040E050E00E940D0380E797E1821B08
S1130360930B90938B0180938A010E948900C7CFDD
S113037084B1806284B984B1846084B984B18260B8
S113038084B982E084BD85BD91E897BD80936E00F9
S11303900895809339018FEF90E09C01241B31096B
S11303A03093890020938800861B910990938B00D9
S11303B080938A0008951F920F920FB60F92112412
S11303C08F939F9380913A018F5F80933A0190912C
S11303D03A0180913901981720F485B18F7D85B950
S11303E003C085B1806285B99F918F910F900FBE34
S11303F00F901F901895CF93DF9300D01F92CDB725
S1130400DEB70E948802BC018BE391E00E94520394
S11304104AE050E060E071E08BE391E00E94590310
S1130420892B11F5CE0101969F938F9301969F938B
S11304308F9301969F938F938BE091E09F938F937B
S113044085E491E09F938F930E94670349816A81B9
S11304508B810E940D018AE191E00E9478020FB61F
S1130460F894DEBF0FBECDBF0F900F900F90DF91B9
S1130470CF9108950E94850281110E94FB01089585
S113048081EA809380008DE080938100109289003E
S11304901092880010928B0010928A00089588E9C7
S11304A08093C10086E08093C20087E690E0909339
S11304B0C5008093C4000895382F8091550190E0C1
S11304C0019666E170E00E94F902282F9091540190
S11304D02917E1F3E0915501F0E0E85AFE4F30832B
S11304E080935501E1ECF0E080818062808308957F
S11304F0CF93DF93EC0103C021960E945C028881B4
S11305008111FACFDF91CF9108958091560108951A
S1130510109256018EE691E008951F920F920FB645
S11305200F9211245F936F937F938F939F93AF9355
S1130530BF93EF93FF9390915401809155019817C5
S113054099F0E0915401F0E0E85AFE4F80818093E5
S1130550C6008091540190E0019666E170E00E942B
S1130560F9028093540105C0E1ECF0E080818F7DB5
S11305708083FF91EF91BF91AF919F918F917F9174
S11305806F915F910F900FBE0F901F9018951F925F
S11305900F920FB60F9211248F939F93EF93FF93B3
S11305A08091C6008D3011F08A3061F4E0915701DA
S11305B0F0E0E259FE4F108281E0809356011092E0
S11305C057010EC090915701983150F4E0915701B2
S11305D091E09E0F90935701F0E0E259FE4F808323
S11305E0FF91EF919F918F910F900FBE0F901F90ED
S11305F0189597FB072E16F4009407D077FD09D0C1
S11306000E943E0307FC05D03EF4909581959F4FD0
S11306100895709561957F4F0895A1E21A2EAA1B43
S1130620BB1BFD010DC0AA1FBB1FEE1FFF1FA2179E
S1130630B307E407F50720F0A21BB30BE40BF50B9B
S1130640661F771F881F991F1A9469F76095709524
S1130650809590959B01AC01BD01CF010895A29FA7
S1130660B001B39FC001A39F700D811D1124911D82
S1130670B29F700D811D1124911D0895AA1BBB1BEF
S113068051E107C0AA1FBB1FA617B70710F0A61B8E
S1130690B70B881F991F5A95A9F780959095BC01AF
S11306A0CD010895FB01DC0101900D920020E1F7DA
S11306B00895FB01DC014150504030F08D910190D0
S11306C0801919F40020B9F7881B990B0895AEE03E
S11306D0B0E0EDE6F3E00C94AB0685E08C838B8907
S11306E09C899A838983AE01495E5F4F6D897E89B7
S11306F0CE0101960E941C052E96E2E00C94C706DA
S113070020FD09C0FC0123FD05C022FF02C0738344
S1130710628351834083089544FD17C046FD17C08A
S1130720AB01BC01DA01FB01AA0FBB1FEE1FFF1FC7
S11307301094D1F74A0F5B1F6E1F7F1FCB01BA01C4
S1130740660F771F881F991F09C033E001C034E08A
S1130750660F771F881F991F3150D1F7620F711DE3
S1130760811D911D08950F931F93CF93DF938C01E7
S1130770C8010E944106EC0197FD08C00E942D06A5
S1130780892BB1F7B801CE010E947F06CE01DF911B
S1130790CF911F910F9108958F929F92AF92BF9224
S11307A0EF92FF920F931F93CF93DF938C01D62F79
S11307B07A01B22E0E9441069C0133272B32310567
S11307C031F02D32310561F48B2D8068B82ED15073
S11307D011F480E068C0C8010E94410697FDF9CF7A
S11307E0CB2DCD7F2B2D207309F58033F9F4AA246A
S11307F0AA94AD0E09F443C0C8010E94410697FDB6
S11308003EC09C012F7D33272835310549F4C2644D
S1130810D250A9F1C8010E94410697FF07C02FC01A
S1130820B6FE02C0C26001C0C261DA2D812C912CD7
S1130830540120ED280F283080F0C4FF04C0B80113
S11308400E947F0619C02A3040F0C6FFF8CF2F7DE2
S11308503FEE320F363098F727504C2FC501B401C4
S11308600E948C034B015C01C260D15059F0C80155
S11308700E94410697FFDDCFC1FD04C0AACF812CA1
S1130880912C5401C7FF08C0B094A0949094809414
S1130890811C911CA11CB11C2C2FB501A401C70102
S11308A00E94800381E0DF91CF911F910F91FF900F
S11308B0EF90BF90AF909F908F900895A0E2B0E02A
S11308C0E4E6F4E00C949E065C01962E7A01F901AC
S11308D08E010F5F1F4F680180E2D8011D928A9537
S11308E0E9F7D50113968C9080E090E0612C712C8F
S11308F030E061E070E083FC259183FE21918F015B
S1130900522E211103C080E090E092C02E3511F4E4
S1130910009751F1432F50E0481759073CF42D3507
S113092059F12D3219F4772009F103C0772009F425
S11309306AC0452D469546954695D601A40FB11D2E
S1130940452D47708B0102C0000F111F4A95E2F735
S1130950A8015C91452B4C93651459F0561410F47E
S11309605394E7CF5A94E5CF31E004C077247394CD
S113097001C0712C0196BFCF772019F08E8180625F
S11309808E83311103C08824839417C0F6019E011D
S11309902F5D3F4F8081809581932E173F07D1F7BC
S11309A0F2CFE114F10429F0D7018C93F7013196C9
S11309B07F019A94812C9920F9F0C5010E94410687
S11309C097FD18C0FC01FF2723E0F595E7952A95CC
S11309D0E1F7EC0DFD1D208130E0AC014770552797
S11309E002C0359527954A95E2F720FDDACFB50187
S11309F00E947F06811087CFE114F10411F0D70122
S1130A001C92C80115C0422F469546954695D601BD
S1130A10A40FB11D422F47708B0102C0000F111F9C
S1130A204A95E2F7A8015C91452B4C93622EA2CF24
S1130A30A096EFE00C94BA06A0E0B0E0E2E2F5E0A4
S1130A400C949E066C01EB015A01FC01178216827C
S1130A50512CF601E380FE01E3FC8591E3FE8191D4
S1130A60182FEF01882309F4EEC090E00E942D06B0
S1130A70892B21F0C6010E94B303EBCF153241F458
S1130A80FE01E3FC1591E3FE1191EF01153281F4AF
S1130A90C6010E94410697FDD4C0412F50E09C013D
S1130AA0332724173507A9F2B6010E947F06CBC06D
S1130AB01A3239F4E3FC1591E3FE1191EF0101E0E0
S1130AC001C000E0F12C20ED210F2A3080F40260F7
S1130AD06F2D70E080E090E040E20E948C03F62EDF
S1130AE0FE01E3FC1591E3FE1191EF01ECCF01FF50
S1130AF003C0F11003C0A7C0FF24FA94183619F0FC
S1130B001C3651F010C0FE01E3FC1591E3FE119177
S1130B10EF01183641F408600460FE01E3FC15910E
S1130B20E3FE1191EF01112309F48DC0612F70E0F0
S1130B3088E690E00E943606892B09F484C000FD03
S1130B4007C0F50180809180C50102965C0102C056
S1130B50812C912C1E3651F4F6014681578160E0B8
S1130B6070E0202FC4010E94800373CF1336A9F4D0
S1130B7001FD02C0FF24F394C6010E94410697FDC3
S1130B8060C08114910429F0F4018083C4010196AA
S1130B904C01FA94F110F0CF50C01B3559F49E016A
S1130BA0A4016F2DC6010E945E04EC01892B09F09B
S1130BB044C03EC0C6010E94B30397FD42C01F3625
S1130BC061F128F4143639F1193651F128C013377C
S1130BD071F0153701F123C08114910429F0F40157
S1130BE06082C40101964C01FA94FF2071F0C601A1
S1130BF00E9441063C0197FD08C00E942D06892BE6
S1130C0059F3B601C3010E947F0681149104A9F02F
S1130C10F401108212C0006203C0006101C00064CC
S1130C20202FA4016F2DC6010E94CC03811105C0A1
S1130C30F6018381807329F406C000FD0ACF539422
S1130C4008CF552019F0852D90E002C08FEF9FEF5B
S1130C50CDB7DEB7EFE00C94BA0691110C94980668
S1130C60803219F089508550C8F70895FC01059029
S1130C70061621F00020D9F7C00108953197CF015D
S1130C800895CF93DF93EC012B8120FF33C026FF1F
S1130C900AC02F7B2B838E819F8101969F838E8335
S1130CA08A8190E029C022FF0FC0E881F981808108
S1130CB0082E000C990B009719F420622B831AC09C
S1130CC03196F983E8830EC0EA85FB85099597FF81
S1130CD009C02B81019611F080E201C080E1822BD2
S1130CE08B8308C02E813F812F5F3F4F3F832E832C
S1130CF0992702C08FEF9FEFDF91CF910895FB01F9
S1130D00238120FF12C026FD10C08F3F3FEF9307C1
S1130D1061F082832F7D20642383268137812150D3
S1130D20310937832683992708958FEF9FEF08951C
S1130D309927882708952F923F924F925F926F923E
S1130D407F928F929F92AF92BF92CF92DF92EF9257
S1130D50FF920F931F93CF93DF93CDB7DEB7CA1BD8
S1130D60DB0B0FB6F894DEBF0FBECDBF09942A8803
S1130D70398848885F846E847D848C849B84AA84AB
S1130D80B984C884DF80EE80FD800C811B81AA8138
S1130D90B981CE0FD11D0FB6F894DEBF0FBECDBF03
S10B0DA0ED010895F894FFCF62
S1130DA85345545F434F4C4F523D00256868752C9A
S1130DB8256868752C2568687500436F6C6F722008
S1110DC841637475616C697A61646F0D0A0091
S9030000FC
