S0130000456E7472656761626C65322E73726563E6
S11300000C9464000C9481000C9481000C94810085
S11300100C9481000C9481000C9481000C94810058
S11300200C9481000C9481000C9481000C94810048
S11300300C9481000C9481000C945A050C9481005A
S11300400C9481000C9481000C9481000C94810028
S11300500C9481000C9481000C9481000C94810018
S11300600C9481000C9481000B050F0513051705F2
S11300701B051F05230527052B052F05330537050C
S11300803B053F0543054705001F000000001F0016
S1130090001F101010101F00001F181818181F0040
S11300A0001F1C1C1C1C1F00001F1E1E1E1E1F00E8
S11300B0001F1F1F1F1F1F0003070F1F0F07030031
S11300C0181C1E1F1E1C180011241FBECFEFD8E0E1
S11300D0DEBFCDBF11E0A0E0B1E0EAEEF0E102C086
S11300E005900D92A032B107D9F721E0A0E2B1E06A
S11300F001C01D92A333B207E1F70E949E020C9443
S113010073080C94000065B1982F9074492F50E047
S113011055954795559547955595479555954795C3
S1130120982F9078292F30E0022E232F000C221FC5
S1130130330B000C221F331F962F997F492B242B3E
S113014025B968B1982F9071492F50E0559547957E
S11301505595479555954795982F9072292F30E0DE
S1130160359527953595279535952795962F997F1C
S1130170492B242B28B99BB192609BB99BB1916008
S11301809BB925ED2A95F1F700009BB19E7F9BB9A1
S11301909BB19D7F9BB995ED9A95F1F7000065B1F0
S11301A020E1829FC0011124AC014074552755956C
S11301B047955595479555954795559547959C0170
S11301C020783327022E232F000C221F330B000C20
S11301D0221F331F362F397F432B242B25B948B1D7
S11301E09C012071332735952795359527953595AD
S11301F027958072992795958795959587959595D7
S11302008795942F997F292B822B88B98BB1826093
S11302108BB98BB181608BB985ED8A95F1F70000BC
S11302208BB18E7F8BB98BB18D7F8BB995ED9A9500
S1130230F1F70000089565B1982F9074492F50E0AC
S11302405595479555954795559547955595479592
S1130250982F9078292F30E0022E232F000C221F94
S1130260330B000C221F331F962F997F492B242B0D
S113027025B968B1982F9071492F50E0559547954D
S11302805595479555954795982F9072292F30E0AD
S1130290359527953595279535952795962F997FEB
S11302A0492B242B28B99BB191609BB9EFE9FFE05E
S11302B03197F1F700C000009BB19E7F9BB9EFE935
S11302C0FFE03197F1F700C0000065B1F0E18F9FC6
S11302D0C0011124AC014074552755954795559597
S11302E0479555954795559547959C012078332713
S11302F0022E232F000C221F330B000C221F331F4E
S1130300362F397F432B242B25B948B19C0120710A
S113031033273595279535952795359527958072FB
S11303209927959587959595879595958795942F74
S1130330997F292B822B88B98BB181608BB98FE986
S11303409FE00197F1F700C000008BB18E7F8BB95D
S1130350EFE9FFE03197F1F700C00000089581E074
S11303600E941B01089582E00E941B0108950F93CF
S11303701F93CF93DF93009769F0D62F8C01C0E0D1
S113038007C0F801EC0FF11D80810E948300CF5F4C
S1130390CD17B8F3DF91CF911F910F91089562307B
S11303A031F0633031F0613029F4805C03C08C5E3D
S11303B001C08C5A80680E941B010895EF92FF923D
S11303C00F931F93CF93DF937C01862F90E0880FC8
S11303D0991F880F991F880F991F8064C0E0D0E08F
S11303E00DC0F701EC0FFD1F149101E0080F0E94EE
S11303F01B01812F0E9483002196802FC830D105D4
S113040080F3DF91CF911F910F91FF90EF900895AA
S1130410CF93DF932FEF86E791E021508040904007
S1130420E1F700C0000085B1897F85B988B1897F73
S113043088B91BB884B1866084B987B1866087B9EE
S11304408AB183608AB985B1897F85B988B18660AC
S113045088B98BB181608BB98FE99FE00197F1F77F
S113046000C000008BB18E7F8BB98FE99FE00197AC
S1130470F1F700C0000085B1897F85B988B1866035
S113048088B98BB181608BB98FE99FE00197F1F74F
S113049000C000008BB18E7F8BB98FE99FE001977C
S11304A0F1F700C0000085B1897F85B988B1897FE3
S11304B0846088B98BB181608BB98FE99FE0019723
S11304C0F1F700C000008BB18E7F8BB98FE99FE0FC
S11304D00197F1F700C0000088E20E941B018CE044
S11304E00E941B0160E0C0E00AC0D1E0D60F8C2F4F
S11304F090E088579F4F0E94DE01C85F6D2FC03483
S1130500A0F3DF91CF91089588E00E941B01089524
S11305108CE00E941B0108950E9408020E94AF0112
S11305200E94B30160E080E00E94CF01089584B18D
S1130530806284B987B1806387B908950E94970265
S11305400E948C020E945A040E944B050E943603AA
S1130550809132018823E1F3109232010E94390321
S1130560F7CFE8E2F1E080819181880F282F220FF4
S1130570220F820F282F290F82819381880F382F11
S1130580330F330F830F890F8C3308F08BE390E024
S11305903CE3239F800D911D112490932D018093A2
S11305A02C010895E8E2F1E0918190839281918396
S11305B09381928383830E94B10208950F931F93C2
S11305C0CF93DF9300D000D01F92CDB7DEB7409118
S11305D02C0150912D019A01A9E8B8E80E947A05EE
S11305E0FC01F695E795F295E295EF70EF27FF7021
S11305F0EF272CE32E9FC0012F9F900D1124481B41
S1130600590B55275F934F93FF27FF93EF9381E097
S113061091E09F938F938E010F5F1F4F1F930F9352
S11306200E94890560E080E00E94CF0165E0C80176
S11306300E94B7010FB6F894DEBF0FBECDBF0F9076
S11306400F900F900F900F90DF91CF911F910F910A
S1130650089510922D0110922C01E8E2F1E010822D
S11306601182128213820E94AF01089510922E010A
S11306700895CF93DF931F92CDB7DEB7CE010196D5
S11306800E94DE04882309F464C0CE0101960E940E
S1130690FE04898190ED980F9A3048F490912E01D0
S11306A0992311F0923019F480530E94D202898167
S11306B0813449F420912C0130912D01232B19F020
S11306C091E090932E01823499F480912E0181302F
S11306D039F018F0823041F00BC00E94290308C0A1
S11306E082E080932E0104C00E94290310922E01FF
S11306F089818334D1F420912C0130912D01225E23
S11307003F4F30932D0120932C012037374130F097
S11307102FE637E130932D0120932C0190912E0187
S1130720911103C091E090932E01843491F490913F
S1130730270181E0892780932701882341F0809154
S11307402E01823030F484E080932E0102C0109296
S11307502E0180912E01823009F448C028F48823A8
S113076051F08130A1F0A2C0833009F44CC0843030
S113077009F490C09BC085B18F7D85B988B18F7E07
S113078088B988B18F7D88B90E94DE028FC085B197
S1130790806285B988B1806188B980912501909182
S11307A0260101969093260180932501883E93406B
S11307B008F47CC0109226011092250180912C012E
S11307C090912D01009729F0019790932D0180932A
S11307D02C010E94DE0280912C0190912D01892B25
S11307E009F064C083E080932E0160C085B18F7DE1
S11307F085B961E080E00E94CF0165E08BE091E083
S11308000E94B70153C085B18F7D85B988B18F7EB1
S113081088B988B1806288B98091210190912201C0
S1130820019690932201809321018091230190915C
S1130830240101969093240180932301843F9140E5
S1130840B8F010922401109223019091200181E0CC
S1130850892780932001882331F00E94840288B183
S1130860806288B905C00E94880288B18F7D88B9EA
S1130870809121019091220188389341B8F010921F
S11308802201109221010E9488020E9429031092E1
S11308902E010CC085B18F7D85B961E080E00E9496
S11308A0CF016EE081E191E00E94B7010F90DF91EA
S11308B0CF91089584B1896184B98AB180688AB975
S11308C08AB1837C8AB98BB18C638BB985B1896118
S11308D085B98BB180688BB90895CF93DF93CDB779
S11308E0DEB728970FB6F894DEBF0FBECDBF84E005
S11308F0898393E09A831B8227E02C839D8395E070
S11309009E838F8382E0888780E04BC095B1996194
S113091095B99BB190689BB9833099F49BB1E1E0A0
S1130920F0E0EC0FFD1FE80FF11D21E030E0008046
S113093002C0220F331F0A94E2F7209529232BB912
S113094012C095B1E1E0F0E0EC0FFD1FE80FF11DDE
S113095021E030E0008002C0220F331F0A94E2F746
S11309602095292325B995E39A95F1F7000090E0A5
S113097015C029B1E5E0F0E0EC0FFD1FE90FF11D12
S113098030E0008002C0359527950A94E2F720FDF7
S113099004C0880F880F890F08C09F5F943048F304
S11309A08F5F843008F4B2CF8FEF28960FB6F89497
S11309B0DEBF0FBECDBFDF91CF910895CF93DF93FC
S11309C0EC010E946D048F3F31F480932F018093DA
S11309D0000180E010C090912F01891309C090910B
S11309E00001891729F088838093000181E003C006
S11309F080932F0180E0DF91CF910895DC01EC9189
S1130A004E2F50E04031510508F044C0FA01EC5C2F
S1130A10FF4F0C94740521E3FC012083089522E325
S1130A20DC012C93089523E3FC012083089521E441
S1130A30DC012C93089524E3FC012083089525E32D
S1130A40DC012C93089526E3FC012083089522E41D
S1130A50DC012C93089527E3FC012083089528E307
S1130A60DC012C93089529E3FC012083089523E4F9
S1130A70DC012C9308952AE2FC012083089520E3ED
S1130A80DC012C93089523E2FC012083089524E4DF
S1130A90DC012C93089584B5826084BD85B58360A0
S1130AA085BD89EF87BDEEE6F0E0808182608083BA
S1130AB0789408951F920F920FB60F9211248F937A
S1130AC09F9380913001909131010196909331016F
S1130AD08093300181E0809332019F918F910F9038
S1130AE00FBE0F901F901895EE0FFF1F0590F49105
S1130AF0E02D0994A29FB001B39FC001A39F700D84
S1130B00811D1124911DB29F700D811D1124911D11
S1130B100895AEE0B0E0EFE8F5E00C944A080D89E2
S1130B201E8986E08C831A8309838FEF9FE79E8357
S1130B308D83AE01475E5F4F6F89788DCE0101963C
S1130B400E94AB05EF81F885E00FF11F10822E960D
S1130B50E4E00C946608ABE0B0E0E1EBF5E00C9463
S1130B603C086C017B018A01FC0117821682838197
S1130B7081FFCCC1CE0101963C01F6019381F701BE
S1130B8093FD859193FF81917F01882309F4BAC174
S1130B90853239F493FD859193FF81917F018532EC
S1130BA029F4B60190E00E94A207E7CF912C212CF2
S1130BB0312CFFE1F315D8F08B3279F038F4803220
S1130BC079F08332A1F4232D20611DC08D3261F0B0
S1130BD0803369F4232D216016C0832D8260382E62
S1130BE0E32DE4603E2E2AC0F32DF8601DC037FCCF
S1130BF02DC020ED280F2A3040F08E32B9F436FC97
S1130C0081C1232D2064322E19C036FE06C08AE02D
S1130C10989E200D1124922E11C0EAE02E9E200DE4
S1130C201124222EF32DF0623F2E08C08C3621F4BD
S1130C30832D8068382E02C0883641F4F70193FD75
S1130C40859193FF81917F018111B3CF982F9F7D6F
S1130C509554933028F40C5F1F4F9FE399830DC084
S1130C60833631F0833771F0833509F059C021C0E0
S1130C70F801808189830E5F1F4F88248394912C0F
S1130C80530113C02801F2E04F0E511CF801A0805B
S1130C90B18036FE03C0692D70E002C06FEF7FEFB4
S1130CA0C5010E9497074C018201F32DFF773F2E67
S1130CB016C0280122E0420E511CF801A080B18028
S1130CC036FE03C0692D70E002C06FEF7FEFC501EF
S1130CD00E948C074C01F32DF0683F2E820133FCF7
S1130CE01BC0822D90E088169906B0F4B60180E20C
S1130CF090E00E94A2072A94F4CFF50137FC859175
S1130D0037FE81915F01B60190E00E94A207211095
S1130D102A9421E0821A91088114910471F7E8C0A1
S1130D20843611F0893641F5F80137FE07C0608139
S1130D307181828193810C5F1F4F08C06081718132
S1130D40072E000C880B990B0E5F1F4FF32DFF76B7
S1130D503F2E97FF09C090958095709561957F4FC0
S1130D608F4F9F4FF0683F2E2AE030E0A3010E948E
S1130D70DE07882E861845C0853731F4232D2F7E53
S1130D80B22E2AE030E025C0932D997FB92E8F36FC
S1130D90C1F018F4883579F0B5C0803719F0883778
S1130DA021F0B0C0E92FE061BE2EB4FE0DC0FB2DD2
S1130DB0F460BF2E09C034FE0AC0292F2660B22E6B
S1130DC006C028E030E005C020E130E002C020E1A8
S1130DD032E0F801B7FE07C060817181828193819E
S1130DE00C5F1F4F06C06081718180E090E00E5F50
S1130DF01F4FA3010E94DE07882E8618FB2DFF7764
S1130E003F2E36FE0DC0232D2E7FA22E891458F4BA
S1130E1034FE0BC032FC09C0832D8E7EA82E05C083
S1130E20B82CA32C03C0B82C01C0B92CA4FE0FC04D
S1130E30FE01E80DF11D8081803321F49A2D997E05
S1130E40A92E09C0A2FE06C0B394B39404C08A2D8F
S1130E50867809F0B394A3FC11C0A0FE06C0B214B6
S1130E6088F4280C922C9B180EC0B21460F4B601BE
S1130E7080E290E00E94A207B394F7CFB21418F472
S1130E802B1802C0982C212CA4FE10C0B60180E3BC
S1130E9090E00E94A207A2FE17C0A1FC03C088E74D
S1130EA090E002C088E590E0B6010CC08A2D8678F7
S1130EB059F0A1FE02C08BE201C080E2A7FC8DE2E2
S1130EC0B60190E00E94A207891438F4B60180E3C9
S1130ED090E00E94A2079A94F7CF8A94F301E80D58
S1130EE0F11D8081B60190E00E94A2078110F5CF28
S1130EF0222009F442CEB60180E290E00E94A207CB
S1130F002A94F6CFF6018681978102C08FEF9FEF76
S1130F102B96E2E10C945808FC0105906150704056
S1130F200110D8F7809590958E0F9F1F0895FC01AE
S1130F306150704001900110D8F7809590958E0F04
S1130F409F1F08950F931F93CF93DF93FB0123817A
S1130F5021FD03C08FEF9FEF2CC022FF16C04681F6
S1130F605781248135814217530744F4A081B1810C
S1130F709D012F5F3F4F318320838C9326813781DE
S1130F802F5F3F4F3783268314C08B01EC01FB0195
S1130F900084F185E02D0995892BE1F6D801169698
S1130FA08D919C911797019617969C938E93169703
S1130FB0CE01DF91CF911F910F910895FA01AA27D5
S1130FC0283051F1203181F1E8946F936E7F6E5F88
S1130FD07F4F8F4F9F4FAF4FB1E03ED0B4E03CD036
S1130FE0670F781F891F9A1FA11D680F791F8A1F19
S1130FF0911DA11D6A0F711D811D911DA11D20D080
S113100009F468943F912AE0269F11243019305D39
S11310103193DEF6CF010895462F4770405D41932A
S1131020B3E00FD0C9F7F6CF462F4F70405D4A3377
S113103018F0495D31FD4052419302D0A9F7EACF3F
S1131040B4E0A6959795879577956795BA95C9F76E
S113105000976105710508959B01AC010A2E069461
S11310605795479537952795BA95C9F7620F731F1A
S1131070841F951FA01D08952F923F924F925F9257
S11310806F927F928F929F92AF92BF92CF92DF9294
S1131090EF92FF920F931F93CF93DF93CDB7DEB7F9
S11310A0CA1BDB0B0FB6F894DEBF0FBECDBF09948D
S11310B02A88398848885F846E847D848C849B84E4
S11310C0AA84B984C884DF80EE80FD800C811B81F2
S11310D0AA81B981CE0FD11D0FB6F894DEBF0FBE21
S10D10E0CDBFED010895F894FFCF91
S11310EAFF253032643A2530326400504155534169
S11310FA00505545525441204142494552544100F9
S9030000FC
