S00F0000707275656261312E7372656365
S11300000C9434000C9451000C9451000C94510045
S11300100C9451000C9451000C9451000C94510018
S11300200C9451000C9451000C9451000C94510008
S11300300C9451000C9451000C9451000C945100F8
S11300400C9451000C9451000C9451000C945100E8
S11300500C9451000C9451000C9451000C945100D8
S11300600C9451000C94510011241FBECFEFD8E022
S1130070DEBFCDBF11E0A0E0B1E0EAE6F3E002C0EC
S113008005900D92A430B107D9F721E0A4E0B1E0C6
S113009001C01D92AC30B207E1F70E946E010C94CE
S11300A0B3010C9400008FEF8AB91BB887B18C7F21
S11300B087B988B1836088B984B1816084B90895AF
S11300C081E090E00090050102C0880F991F0A9416
S11300D0E2F78BB980910501873019F4109205017C
S11300E008958F5F80930501089581E090E000906A
S11300F0050102C0880F991F0A94E2F78BB9809119
S11301000501873011F410920301811103C091E0BD
S11301109093030190910301992321F08F5F8093C1
S113012005010895815080930501089590E030C041
S113013088230CF016C025B1216025B90000000009
S113014000000000000000000000000000000000AB
S113015025B12E7F25B9000000000000000000003A
S113016015C025B1216025B9000000000000000081
S113017025B12E7F25B9000000000000000000001A
S1130180000000000000000000000000880F9F5FD6
S1130190983008F4CDCF0895CF93DF93D82F862FCE
S11301A0C42F0E9496008D2F0E9496008C2F0E94CF
S11301B09600DF91CF910895CF939091040181E04F
S11301C0892780930401C0E021C0C0FD10C0809144
S11301D00401882331F040E060E08FEF0E94CC00FE
S11301E014C040E060E080E00E94CC000EC080912A
S11301F00401811105C04FEF60E00E94CC0005C0EE
S113020040E060E080E00E94CC00CF5FC830E8F2BC
S113021080E090E002C000000196883E23E092074F
S1130220D0F3CF910895CF93C0E016C02C2F30E0C7
S113023080910001082E000C990B2817390731F41E
S113024040E06FEF80E00E94CC0005C040E060E039
S113025080E00E94CC00CF5FC83040F38091000161
S1130260811104C087E08093000103C08150809312
S1130270000180E090E002C000000196883E23E087
S11302809207D0F3CF91089596B181E0492F417040
S113029090FF80E0982F26B181E0322F327021FF49
S11302A080E020910201222341F0411106C04091D7
S11302B00B0121E0242720930B012091010122232B
S11302C041F0311106C030910A0121E02327209327
S11302D00A01909302018093010108950E94530042
S11302E08FE99FE00197F1F700C0000080910801B9
S11302F090910901019690930901809308018091DE
S113030006019091070101969093070180930601DD
S11303100E9444018091080190910901843691055D
S113032068F0109209011092080180910B0181116B
S113033003C00E94600002C00E9475008091060103
S1130340909107018639910558F210920701109295
S1130350060180910A01811103C00E94DC00C0CF14
S10D03600E941301BDCFF894FFCFF3
S107036A0701010181
S9030000FC
